:020000040800F2
:10000000C060002055020008ED290008AD1E000860
:10001000152800088D0F0008914A00080000000014
:100020000000000000000000000000009D0100082A
:100030009517000800000000F1010008D139000800
:100040006F0200086F0200086F0200086F020008CC
:100050006F0200086F0200086F0200086F020008BC
:100060006F0200086F0200086F0200086F020008AC
:100070006F0200086F0200086F0200086F0200089C
:100080006F0200086F0200086F0200086F0200088C
:10009000491100086F0200086F0200086F02000893
:1000A0006F020008813E00086F020008A53A0008B0
:1000B000913E0008A13E0008B53E00086F0200080E
:1000C0006F0200086F0200086F0200086F0200084C
:1000D0006F020008954600086F020008AD4700084F
:1000E0006F0200086F0200086F0200086F0200082C
:1000F0006F0200086F0200086F0200086F0200081C
:100100006F0200086F020008C93E00086F02000875
:10011000F14300086F0200086F0200086F02000838
:100120006F0200086F0200086F0200086F020008EB
:100130006F0200086F0200086F0200086F020008DB
:100140006F0200086F0200086F0200086F020008CB
:100150006F0200086F0200086F0200086F020008BB
:100160006F0200086F0200086F0200086F020008AB
:100170006F0200086F0200086F0200086F0200089B
:100180006F0200086F020008DFF80CD000F068FB77
:100190000048004771600008C06000202A4B1968C1
:1001A0000868B0E8F04F80F30988BFF36F8F4FF015
:1001B000000080F3118870470000000006480068C6
:1001C000006880F3088862B661B6BFF34F8FBFF353
:1001D0006F8F00DF00BF00BF08ED00E0DFF80C000C
:1001E000016841F470010160704700BF88ED00E0D4
:1001F000EFF30980BFF36F8F134B1A681EF0100FD7
:1002000008BF20ED108A20E9F04F106008B44FF0CD
:10021000500080F31188BFF34F8FBFF36F8F07F04B
:1002200005FE4FF0000080F3118808BC19680868CB
:10023000B0E8F04F1EF0100F08BFB0EC108A80F34A
:100240000988BFF36F8F704738010020EFF30580F6
:10025000704700000648804706480047FEE7FEE773
:10026000FEE7FEE7FEE7FEE7FEE7FEE7FEE7FEE766
:10027000E53900088901000840EA01039B0703D023
:1002800009E008C9121F08C0042AFAD203E011F8D5
:10029000013B00F8013B521EF9D27047D2B201E097
:1002A00000F8012B491EFBD270470022F6E710B57B
:1002B00013460A4604461946FFF7F0FF204610BDD4
:1002C0002DE9FE4F804681EA0300C00F0C460090E6
:1002D00021F0004123F00045B8EB0200A94105D20E
:1002E0004046214690461C460B46024623F00040FD
:1002F000104347D0270DC7F30A00C3F30A510290F9
:10030000401A019040286BDAC3F3130040F4801BBD
:100310000098924620B10023D2EB030A63EB0B0B4B
:1003200001985946C0F14002504600F0B4F9064623
:100330000D4650465946019A00F0BCF910EB0800F2
:100340006141002487EA115284EAE7731A4340D0DE
:10035000009A62B3019A012A4FEA075215DC001B8A
:1003600061EB02014FF0004202EA0752CDE9004280
:10037000001C41F5801132462B4600F0F3F903B022
:10038000BDE8F08F40462146F9E7001B61EB020112
:10039000001C41F5801300185B412018A2F50017DE
:1003A00047EB030140EAD570B6196D4111E06D08C5
:1003B0004FEA360645EAC0754FEA0752001B61EB6B
:1003C0000201001C41F5801149084FEA3000001974
:1003D000514132462B4603B0BDE8F04F00F0B3B9AF
:1003E0000098012240000023D0EB020263EBE0738F
:1003F000009821464FEAE074B8EB000061EB04017D
:10040000E9E783F000435BE781F0004158E72DE91D
:10041000FE4F81EA030404F0004421F000410094FF
:100420004FF0000B23F0004350EA01045ED052EA83
:1004300003045BD0C3F30A54C1F30A552C44A4F25D
:10044000F3340194A0FB0254C1F3130141F4801171
:10045000C3F3130343F4801301FB024400FB034E78
:10046000840A970A44EA815447EA8357A4FB076841
:1004700002958D0A05FB07854FEA932C04FB0C546B
:100480002705029D4FEA065847EA1637B5EB0805DF
:100490006EEB070C870E920E47EA811742EA831231
:1004A000A7FB0201B6EB0B0164EB00042B0D43EA42
:1004B0000C335E1844EB1C50DA465146E7FB020150
:1004C000C5F313044FEA0B3343EA14534FEA0432E3
:1004D000019C43EA0603A4F10C040294009CCDE9BC
:1004E00000B400F03FF903B0BDE8F08F00200146F2
:1004F000F9E72DE9F04D81EA030404F0004B21F007
:10050000004514464FF0000A23F0004150EA05026E
:1005100020D054EA01021DD0C5F30A570246C5F3A4
:100520001303C1F31300C1F30A5640F4801543F4DA
:100530008013A7EB0608101BD64608F2FD3873EBB4
:10054000050002D308F1010801E092185B41B8F1FF
:10055000000F03DA00200146BDE8F08D00204FF4C3
:100560008011064684460EE0171B73EB050705D382
:10057000121B63EB050306434CEA010C49084FEAE2
:10058000300092185B4150EA0107EDD152EA0300B6
:1005900012D082EA040083EA0501084305D0101B4B
:1005A000AB4106D20122002306E000224FF00043B7
:1005B00002E06FF0010253101AEB06004CEB0851F9
:1005C00010EB0A0041EB0B01BDE8F04D00F0BBB8A9
:1005D0000EB5C10F80EAE0700844CA07002140F25E
:1005E00033438DE80E000A460B4600F0BBF803B01B
:1005F00000BD0EB540F2334102910021CDE900115A
:100600000A460B4600F0AEF803B000BD00F0004211
:1006100030F000400AD0C10D01F56071C0F3160042
:1006200042EA0151C20840071143704700200146C9
:10063000704701F0004330B421F0004150EA01025C
:1006400006D00A0DA2F56072C1F31301002A02DC84
:1006500030BC00207047440F44EAC104C100E018D8
:1006600030BC00EBC25000F037B830B50B46014645
:1006700000202022012409E021FA02F59D4205D341
:1006800003FA02F5491B04FA02F52844151EA2F1EB
:100690000102F1DC30BD202A04DB203A00FA02F12D
:1006A000002070479140C2F1200320FA03F3194360
:1006B00090407047202A06DBCB17203A41FA02F01F
:1006C00043EAE07306E041FA02F3D040C2F12002AF
:1006D00091400843194670470029A8BF7047401C45
:1006E000490008BF20F00100704710B4B0FA80FC48
:1006F00000FA0CF050EA010404BF10BC704749B185
:10070000CCF1200421FA04F411FA0CF118BF0121F4
:1007100021430843A3EB0C01CB1D4FEA00614FEAD4
:10072000102042BF002010BC704700EBC3501044A3
:100730000029A4BF10BC7047401C490008BF20F02E
:10074000010010BC704710B5141E73F1000408DAE4
:10075000401C41F1000192185B411A4301D120F085
:10076000010010BD2DE9F04D92469B4611B1B1FA42
:1007700081F202E0B0FA80F220329046FFF78BFF60
:1007800004460F4640EA0A0041EA0B0153465A4626
:10079000084313D0114653EA010019D0C8F14002B2
:1007A000504600F06FF805460E4650465946424600
:1007B000FFF771FF084305D0012004E020463946C9
:1007C000BDE8F08D0020054346EAE0762C43374330
:1007D0000A986305E40AA0EB08000022FD0A44EA37
:1007E00047540A3002D500200146E9E701051019F7
:1007F0006941DDE9084500196941BDE8F04DA2E70E
:1008000070B521F0004303430CD0C1F30A55002416
:10081000D5EB040564EB0403D617AD1AB34102DB34
:100820000020014670BD201841EB025170BD000050
:1008300030B5041E71F1000404DB4FF00044404267
:1008400064EB0101141E73F1000405DB1C464FF03C
:100850000043524263EB0403994208BF904230BD0B
:10086000064C074D06E0E06840F0010394E80700FD
:1008700098471034AC42F6D3FFF78AFC1CA000085E
:100880003CA00008202A04DB203A21FA02F00021D3
:10089000704721FA02F3D040C2F120029140084390
:1008A000194670472DE9F04D00231A461B1A8A415C
:1008B00003DB00200146BDE8F08DC1F30A52C1F30D
:1008C000130141F480154FF0000BD10702D100183D
:1008D0006D41521E0027044640F2FF11384601EBDD
:1008E000620A3E468046024600204FF48011FFF720
:1008F000C9FFC2197141BB1846EB0100B4EB030CF0
:1009000075EB000C04D3E41A65EB000517460E46A0
:10091000241908F101006D4180463428E3DDF919FE
:1009200046EB0600091BA84103D24FF0FF321346E5
:1009300001E0002213461BEB070046EB0A51BDE81D
:10094000F04DFFF700BF70B58C1810F8015B15F083
:10095000070301D110F8013B2A1106D110F8012B31
:1009600003E010F8016B01F8016B5B1EF9D12B0756
:1009700005D40023521E0DD401F8013BFAE710F80C
:10098000013BCB1A921C03E013F8015B01F8015BF9
:10099000521EF9D5A142D8D3002070BD002981682C
:1009A00002D041F0010101E021F0010181607047B6
:1009B000084B10B5D3F8042307490A40D0E90014C6
:1009C0002143D0E90240044321431143C3F80413F7
:1009D00010BD000000200140E030FCFFC06C80B280
:1009E00070470246002012680A4200D0012070477A
:1009F00030B542680F4B0C791A400B6842EA04226A
:100A00001343436082680C4B4D791A40D1E903438C
:100A100023438C6844EA4504234313438360C26A3A
:100A2000097D22F47002491EC9B242EA0151C16235
:100A300030BD0000FFFEFFFCFDF7FFC070B50726CC
:100A400009290AD9C568A1F10A0404EB4404A640A7
:100A5000B543A3401D43C56007E0056901EB4104B0
:100A6000A640B543A3401D4305611F23072A09D2B1
:100A7000446B521E02EB820293409C4391400C4314
:100A8000446370BD0D2A09D2046BD21F02EB8202AF
:100A900093409C4391400C43046370BDC46A0D3A7B
:100AA00002EB820293409C4391400C43C46270BDB0
:100AB000816841F0804181607047000038B5364858
:100AC0009FED360ADFED360A90ED001A51EE000A6E
:100AD000B1EE041A60EE810AB3EE0A1AC0EE811A72
:100AE000FDEEE10A10EE903A642B00DD64232D4800
:100AF000D0ED000A60EE800AFDEEE00A10EE900AEA
:100B0000002800DA40422849D1ED000A20EE800A90
:100B1000BDEEC00A10EE101A002900DA4942234C3B
:100B20006278A2B100226270214C2578012D10D08C
:100B3000204DB5F904403AB3B5F90220B5F90010DB
:100B400001B02346BDE830401BA004F04DB801229F
:100B5000E9E71D4890ED000A1C48BDEEC00A10EE02
:100B6000103A90ED000A1A48BDEEC00A10EE102AA5
:100B700090ED000A17A0BDEEC00A10EE101A04F0A6
:100B800033F80020207038BDCAB2C1B215A000945D
:100B900004F02AF838BD0000180000200000C84208
:100BA0000000FA44A85A0020C45A00205C02002029
:100BB000E70100207C0200207B4225643A25643A4C
:100BC00025647D2400000000B8010020B40100204D
:100BD000B00100207B4325643A25643A25647D24D6
:100BE000000000007B4125643A25643A25643A25DB
:100BF000647D240030B5244B00242B28D97914D0EF
:100C0000D1B39A7903F12005521CD2B205EB8105CC
:100C10009A7155F8045CAD5C854213D1187A401C7A
:100C2000C0B2187222280AD024E0491CD9719C71E4
:100C3000187A401C1872587A401C58721AE01C72BC
:100C40005C7215E0104D183505EB810555F8045C14
:100C5000AA5C824204D001290FD1587A0D280CD306
:100C6000587A401CC0B258722C2803D15C721C7296
:100C7000DC719C71012030BD03E01C725C72DC7180
:100C80009C710020F7E70000BC000020F0B58DB09B
:100C90000121042002F044FB0121022002F040FB6C
:100CA00001210F02384602F053FB0E200326069066
:100CB0008DF81C6000248DF81F4006A9184800F02C
:100CC0009BFF01258DF81C6006958DF81F4006A935
:100CD000144800F091FF0121384602F045FB002145
:100CE000384602F041FB089428040B94CDE909042E
:100CF00008A8FFF75DFE8DF8044000948DF80540CC
:100D000002940494084C8DF8145069462046FFF76D
:100D10006FFE01212046FFF741FE0DB0F0BD00003F
:100D20000008024000040240002001402DED028B2B
:100D300082B005F053F9DFF8F491DFF8F4A1DFF8A1
:100D4000F4B17D4E4FF000089FED7C8A7C4F0090FF
:100D50000A21684606F098FEB86940F6B831884224
:100D600001DA401CB86101F00DF8764C20780128BA
:100D700006D199F8000018B984F8008000F02AFF25
:100D8000B869B0F5757F56DD99F80000012814D1D7
:100D90006D490878401CC0B2087064280DD96520E0
:100DA000087084F80080694886F800808AED008A1F
:100DB00080ED008A8BED008A02E02078012805D0C2
:100DC0006348007818B300F07FFF34E0614D287865
:100DD000012830780DD038B185F80080DBED000AAD
:100DE0009AED000A00F0D8FC28783178084309D041
:100DF00021E00028F0D15848D0ED000A574890ED86
:100E0000000AEFE7B0EE480AF0EE400A11E054485D
:100E1000007810B102F02AFB0DE05248007810B1C2
:100E200002F0EAF907E05048D0ED000A4F4890ED93
:100E3000000A00F0B1FCB869A0F2EF21C72904D282
:100E4000F0EE480A9FED4A0A09E0A0F2B7301D28EB
:100E500007D2B0EE480A01207871F0EE400A00F0A7
:100E60009BFC444890ED000ABDEEC00A10EE100A4B
:100E700003F084FAF96808430CD0207830B13E487A
:100E8000D0F8100210B13D48007818B10022114688
:100E9000104645E03A4CD4ED040A94ED000A01F006
:100EA000A3F900EE100A374DB8EEC00A84ED030A2C
:100EB000D5ED040A95ED000A01F006FA00EE100ADD
:100EC000B8EEC00A85ED030A04F094FE2E480078BF
:100ED00060B101280AD0022811D003280FD00428BD
:100EE0000DD005280BD0062809D01BE095ED030A8C
:100EF000BDEEC00A10EE101A94ED030A0BE095ED5A
:100F0000030AB1EE400ABDEEC00A10EE101A94EDCD
:100F1000030AB1EE400A0022BDEEC00A10EE100A2C
:100F200002F0AEFC01F0CCFA12E70000C201002092
:100F30000001002008010020FD000020000000004A
:100F4000FC010020E9000020C30100200401002072
:100F5000BD010020E8000020140100200C01002049
:100F6000BE010020BC010020D0010020C8010020EB
:100F7000CDCC4C3E1800002000004242AC010020C5
:100F8000A85A0020C45A0020AD010020FEE700004E
:100F90001CB50121082002F0C3F94FF40060009055
:100FA00001208DF8040000218DF8061003218DF832
:100FB00005108DF807006946014800F01DFE1CBDB4
:100FC000000C02402DE9F04F87B00024E8B3E1B3F4
:100FD000DAB3D3B3491E401E01F0FF09C7B2521E57
:100FE0005B1E0121D6B29DB2084602F099F901219B
:100FF000480602F0A1F94FF4C050049002208DF889
:1010000014004FF000088DF8168003208DF81500AD
:10101000DFF82CA14FF0010B8DF817B004A9504652
:1010200000F0EAFD09220B21504600F021FE0922C2
:101030000C21504600F01CFE4248C0F800800168B8
:1010400041F001010160021D0AE0FFE7012007B045
:10105000BDE8F08F641CA4B2642C01D90220F6E72D
:101060001168C907F6D00168824601600168016015
:1010700001680160016841F01001016001680160D0
:10108000016801602F4943461C31C1F80080D1F846
:101090000080DDF840C048EA8C7CC1F800C0D1F87F
:1010A00000C04CEA07670F60D1F800C04CEA09574E
:1010B0000F600F6847EA06460E600E682E430E600A
:1010C000016821F0010101604FF6F07005E0641C39
:1010D000A4B2844201D90320B9E71168C907F6D147
:1010E0008DF80AB08DF80B308DF80CB0ADF80030EB
:1010F000ADF804305C46ADF80230ADF80630ADF81E
:1011000008308DF80DB0684600F036FA0D481430FE
:10111000016841F00201016014208DF818008DF87B
:10112000194003208DF81A008DF81B4006A801F025
:101130005FFC01220221504600F084FA002086E77D
:101140000000024000640040F0B588B002AC07A87F
:10115000CDE9000406AB05AA04A9002000F004F9BB
:101160006948049A012382420CD100210846255C7B
:10117000401C2944C0B2C9B20828F8D3082901D1BB
:101180006248037000209FED620AA2F580718139E8
:101190003BD160490B706049087060490870604934
:1011A000087060490870604908709DF809109DF842
:1011B000083001EB032109B200EE901A5B49F8EE0A
:1011C000E00A80EE801A81ED001A9DF80B109DF860
:1011D0000A3001EB032109B200EE901A5449F8EEEF
:1011E000E00A80EE801A81ED001A9DF80D109DF83E
:1011F0000C3001EB032109B200EE901A4D49F8EED4
:10120000E00A80EE801A81ED001AB2F5C17F79D133
:1012100049494A4B4A4C08709DF809009DF808104E
:10122000484D00EB012000B200EE900A474A484FBB
:10123000F8EEE00ADFF81CC180EE801A83ED001A98
:101240009DF80B009DF80A1000EB012000B200EEA3
:10125000900AF8EEE00A80EE801A84ED001A9DF8FC
:101260000D009DF80C1000EB012000B200EE900A7A
:101270003549F8EEE00A80EE801A9FED390A85EDD7
:10128000001A9DF80E0000F001060E70C0F3401128
:101290001170C0F300123A70C0F3C0078CF80070F0
:1012A000DFF8B4C0C0F3800011448CF8000039446A
:1012B00008182A49087005D185ED000A84ED000A56
:1012C00083ED000A2EB185ED000A84ED000A83ED5E
:1012D000000A9DF80F00234980280AD9C0F58070C4
:1012E000A0EB0010400000EE100AB8EEC00A07E0C4
:1012F00008E0C0EB0010400000EE100AB8EE400A13
:1013000081ED000A08B0F0BD78563412C201002009
:1013100000007A44BF010020BC010020BD01002074
:10132000BE010020C001002054020020C80100209E
:10133000CC010020D0010020C301002000010020CA
:101340000401002008010020FC00002018010020FA
:10135000190100201A0100201B010020FD000020BF
:1013600000000000EC000020F0B5224CDDE905751E
:1013700004EB0014D4F8B06516F004061670D4F827
:10138000B02532D0D2080A60D4F8B01501F00201BD
:101390001970D4F8B41501F00F013970D4F8B815EC
:1013A0002970D4F8B815090A6970D4F8B815090C71
:1013B000A970D4F8B815090EE970D4F8BC152971D4
:1013C000D4F8BC15090A6971D4F8BC15090CA971C7
:1013D000D4F8BC15090EE97148B1012804D10648BA
:1013E000016841F020010160F0BD520DCBE70248D9
:1013F000001FF5E7006000401064004038B500248D
:10140000009108232246012100F02EF8054640F6FF
:10141000FF7301E0641CA4B2284600F07BF80728A3
:1014200001D09C42F6D39C4201D3012038BD00205C
:1014300038BD38B50024009108232246214600F02B
:1014400013F8054640F6FF7301E0641CA4B2284679
:1014500000F060F8072801D09C42F6D39C4201D3EB
:10146000012038BD002038BDF0B506462748059D4F
:101470000468640101D5002008E00468240101D556
:10148000012003E00068C0003CD50220204C00276A
:1014900004EB0014C4F8807599B3F600D4F8807595
:1014A0003743C4F88075D4F8806546EA8101C4F8F2
:1014B0008015D4F8801541EA4201C4F88015D4F8AB
:1014C000842503F00F0122F00F02C4F88425D4F81C
:1014D00084250A43C4F884252979D5F8052041EAF2
:1014E0000221C4F88C152978D5F8012041EA02219F
:1014F000C4F88815D4F8801541F00101C4F88015AE
:10150000F0BD01E0FF20FBE77605C7E70864004077
:1015100000600040174928B1012810D002281BD0D4
:101520000520704708680A6800F0010002F0020216
:101530000243086800F0806042EA10607047086863
:101540000A6800F0010002F002020243086800F09D
:10155000006042EA5060704708680A6800F00100C5
:1015600002F002020243086800F0805042EA9060F4
:101570007047000008640040F0B5827A2F4D0121C9
:1015800091402A6842F001022A602C4E1C363268D3
:101590008A433260294A047B294B0C32A4B914686F
:1015A0008C4314604488C78844EA0744877A03EB75
:1015B000C707C7F840460488878844EA0744877A03
:1015C00003EBC707C7F84446047B012C12D114680B
:1015D0000C431460847A026803EBC4044FEA32427D
:1015E000C4F84026847A426803EBC4034FEA3242CF
:1015F000C3F84426114AC37A121D002B136806D083
:101600000B4313600D4A0389143213B104E08B437A
:10161000F7E713688B4313600389012B02D113682A
:101620000B431360407B012802D1306808433060CF
:10163000286820F001002860F0BD0000006600402E
:1016400000600040002A426901D00A4300E08A435A
:10165000426170477CB5174C00206D46215C2954CF
:10166000401CC0B20828F9D3294640F20110FFF708
:10167000E0FE00202118097A2954401CC0B2082835
:10168000F8D369464FF48170FFF7D3FE002021188C
:10169000097C2954401CC0B20828F8D3694640F29E
:1016A0000310FFF7C6FE04480078002801D000F0C0
:1016B00005F87CBDEE060020C20100201CB500200C
:1016C0008DF800001A48DFED1B0A90ED000A20EEAD
:1016D000200ABDEEC00A10EE101A09128DF8011092
:1016E00010EE101A8DF8021090ED010A20EE200A7B
:1016F000BDEEC00A10EE101A09128DF8031010EE9C
:10170000101A8DF8041090ED020A694620EE200AA6
:10171000BDEEC00A10EE100A00128DF8050010EEA2
:10172000100A8DF8060040F20510FFF782FE1CBD7E
:10173000F000002000007A4430B503460020012963
:1017400008D10022094C03E0A55C6840521CD2B2CB
:101750009A42F9D3002908D1044A323203E0545C9A
:101760006040491CC9B29942F9D330BDEE06002051
:1017700010B504460020012908D10021044A03E0E5
:10178000535C5840491CC9B2A142F9D310BD0000B6
:101790004007002070470000B0EE0C2AB8EE0C3A6B
:1017A00010B5F0EE602AB0EE421AF0EE430A05F0F2
:1017B0007DFEF0EE401AB0EE421AF0EE430AB0EEB3
:1017C000620A05F073FE1C481C4CF0EE400A0078DB
:1017D00068B3C4ED001AC4ED020A194894ED020A78
:1017E000D4ED000A90ED001AF6EE002A154960EEDD
:1017F000011AB0EE600A1448B0EE421A01EEE20A95
:1018000041EEA20A81ED040AC0ED040AF0EE430A9B
:1018100005F04CFE81ED040A90ED040AB0EE421A88
:10182000F0EE430A05F042FE80ED040A10BDB0EE72
:10183000610A02F05FF8D0E7E90000209C5A00201E
:10184000DC010020A85A0020C45A00201CB5012148
:10185000102001F065FD1020009000208DF804009C
:1018600003208DF8050001208DF807006946024825
:1018700000F0C2F91CBD000000100240F0B50121CB
:1018800089B0084601F058FD0121032001F048FD10
:1018900003258DF8055002264FF400408DF80460B2
:1018A00001242B4F00908DF806408DF807406946C3
:1018B000384600F0A1F98DF805508DF804608DF8D8
:1018C00006408DF807400820224C009069462046CB
:1018D00000F092F901220F21384600F0C9F90122E7
:1018E0000321204600F0C4F902A802F03DFD0024C7
:1018F0004FF6FF70ADF8084003907507ADF8104043
:10190000ADF80A4002A9284602F0F0FC00231A466E
:101910000321284602F007FB05A802F087FBADF87B
:101920001C4005A9284602F02BFB0121284602F0A5
:10193000DFFA01221146284602F080FB00212846EA
:1019400002F0AAFC0121284602F0D8FA09B0F0BD45
:10195000000002400004024030B589B0012102209D
:1019600001F0EAFC0121084601F0DAFCC0200390F6
:1019700003208DF8110002208DF8100001208DF851
:101980001200224C8DF8130003A9204600F034F910
:1019900002220621204600F06BF902220721204690
:1019A00000F066F9684602F0DFFC00244FF6FF7095
:1019B000174DADF800400190ADF80840ADF8024079
:1019C0006946284602F092FC00231A460321284665
:1019D00002F0A9FA05A802F029FBADF81C4005A900
:1019E000284602F0CDFA0121284602F081FA0122B0
:1019F0001146284602F022FB0021284602F04CFC4A
:101A00000121284602F07AFA09B030BD00000240F8
:101A10000004004030B589B00121042001F08CFCA5
:101A20000121022001F07CFCC020039003208DF8EE
:101A3000110002208DF8100001208DF81200224CB8
:101A40008DF8130003A9204600F0D6F802220621E3
:101A5000204600F00DF902220721204600F008F987
:101A6000684602F081FC00244FF6FF70174DADF878
:101A700000400190ADF80840ADF8024069462846A4
:101A800002F034FC00231A460321284602F04BFAE8
:101A900005A802F0CBFAADF81C4005A9284602F0D3
:101AA0006FFA0121284602F023FA01221146284646
:101AB00002F0C4FA0021284602F0EEFB012128467C
:101AC00002F01CFA09B030BD0004024000080040DA
:101AD00030B589B00121082001F02EFC0121084613
:101AE00001F01EFC032003908DF8110002208DF8F8
:101AF000100001208DF81200224C8DF8130003A96C
:101B0000204600F079F802220021204600F0B0F8CB
:101B100002220121204600F0ABF8684602F024FCC6
:101B200000244FF6FF70184DADF800400190ADF85D
:101B30000840ADF802406946284602F0D7FB002372
:101B40001A460321284602F0EEF905A802F06EFAC3
:101B5000ADF81C4005A9284602F012FA01212846DA
:101B600002F0C6F901221146284602F067FA002168
:101B7000284602F091FB0121284602F0BFF909B086
:101B800030BD000000000240000C0040B5EEC00A6D
:101B90000E48F1EE10FA04D2B1EE400A4FF0FF31D8
:101BA00000E00121FDEEC00A8160C0ED000AF8EE00
:101BB000E00A30EE600ADFED060A20EE200ABDEEF4
:101BC000C00A80ED010A014870470000A40200200D
:101BD00000007A441CB505A0D0E90010CDE9001042
:101BE00069460448FFF70AFC1CBD00000101010121
:101BF0000101010178563412F0B5002201274FF09F
:101C0000030C0B6807FA02F52B40AB422CD1066897
:101C100053000CFA03F4A64306600E79D0F800E0F6
:101C20009E4046EA0E0606600E79012E01D0022E75
:101C300012D18668A64386604E79D0F808E09E40AF
:101C400046EA0E0686604668AE43466045688E7971
:101C50009640B6B235434560C568A543C560CC79AA
:101C60009C40C3681C43C460521C102AC9D3F0BDF9
:101C70004B07DB0E9A40C90810B500EB8100016AE2
:101C80000F249C40A1430162016A1143016210BD0F
:101C9000418370470183704710B50A4C0146072302
:101CA00001222046FEF7CAFE2046FEF701FF022170
:101CB0002046FEF796FE0028F9D02046BDE81040E9
:101CC000FEF78CBE0020014025489FED261ADFED6F
:101CD000261A027826489FED252A274990ED000A0A
:101CE0002448092AF1EE400A37D2DFE802F036052F
:101CF000080B1013181B330080ED000A0CE080ED78
:101D0000000A01E080ED001AC1ED001A0EE0C0EDFE
:101D1000000A09E0C0ED000A81ED001A06E0C0EDFE
:101D2000000AF1E780ED001A81ED002AD1ED000AEA
:101D30009FED121ADFED121A20EE800AC0EE010AA2
:101D4000C1ED000A90ED001A81EE210A80ED000A33
:101D5000FFF722BD80ED000AE6E780ED001ADBE721
:101D6000C101002000000000DB0F49BFDB0F493F2D
:101D7000B0010020C8010020D00100200000FA437B
:101D800000007A4410B502202DED028B01F04EFBCD
:101D900000EE100A0320B8EEC08A01F047FB404273
:101DA00000EE100A1A48B8EEC00A417999B9D0ED90
:101DB000100AF8EEE00A70EE880AFDEEE00AC0EDC7
:101DC000100AD0ED110AF8EEE00A70EE800AFDEE7E
:101DD000E00AC0ED110ADFED0F1A0F4828EE211AB4
:101DE000D0ED000A20EE210A0C4881EE202A90ED69
:101DF000001A0B48C0EE201A22EE012A80ED002ABC
:101E0000084821EE810A80ED000ABDEC028B10BD6E
:101E1000FC0100200000C842D4010020D8010020AD
:101E2000A85A0020C45A00202DE9F04100250E4692
:101E300007462C4608E03846FFF72EFF05440520EC
:101E400004F07EF8641CE4B2B442F4D3B5FBF6F0BF
:101E500080B2BDE8F081000010B50820FFF71CFF3C
:101E6000FEF7C7FB9FED0B1B53EC112BFEF7CFFAD0
:101E70009FED0A1B53EC112BFEF7C9FA9FED091BCE
:101E800053EC112BFEF7C3FAFEF7D3FB00EE100A5A
:101E900010BD0000EC51B81E85EB094000000000A9
:101EA00000002640000000000000303FFEE7000078
:101EB00070B50D4C0025C4F8A4520C48016821F4FB
:101EC00040310160016841F480310160C4F8A052E2
:101ED000012004F5287404F04FF80120606004F03C
:101EE0004BF8656070BD0000008040420004024075
:101EF0001CB50121022001F013FA4FF440700124B7
:101F000000908DF8044000208DF8060003208DF825
:101F100005008DF8074069460448FFF76DFE044848
:101F2000C0F8A442C0F8A0421CBD0000000402405A
:101F30000080404270B50D4C0026C4F8A4620C48E5
:101F4000016821F440310160016841F48031016091
:101F50000125C4F8A052284604F5287404F00CF8B2
:101F60006560012004F008F8666070BD00804042A2
:101F7000000402402DE9F047814618480025016819
:101F800021F44031016001680160154E2C462F4656
:101F90004FF00108C6F8A472012003F0EDFFC6F867
:101FA000A4826806D6F82012000E11B140F0010597
:101FB00001E020F00105012003F0DEFF641CE4B223
:101FC000082CE7D3B9F1000F04D0FFF7B3FF284680
:101FD000BDE8F087FFF76CFFF9E70000000402405E
:101FE0000080404270B50D46044600F01BF82046C4
:101FF00000F0B0F800F05EF8284600F0ABF800F012
:1020000059F800F00FF844F0010000F0A3F800F0D8
:1020100051F80120FFF7AEFF044600F02BF82046F0
:1020200070BD000070B51148016821F440310160B5
:10203000016841F4803101600D4C0120C4F8A00218
:10204000D4F8201200290FD0C4F8A40203F094FFA2
:102050000025C4F8A052D4F82002002804D10120A1
:1020600003F08AFFC4F8A45270BD000000040240CF
:10207000008040420D4810B5016821F440310160F4
:10208000016841F480310160094C0020C4F8A402C9
:10209000C4F8A002012004F5287403F06DFF0120AC
:1020A00060602060BDE8104003F066BF000402409D
:1020B0000080404270B512480024016821F440318C
:1020C0000160016801600F4D0126C5F8A06230462D
:1020D00003F052FFC5F8A46207E0641CE4B2322C9E
:1020E00003D9FFF7C7FF002070BD012003F044FFB4
:1020F000D5F820020028F0D1C5F8A402012070BD57
:1021000000040240008040422DE9F0411D46144683
:102110000F468046069EFFF765FF621CFF21C4F153
:10212000080301FA02F22B445B1ED9400A43C5F1B1
:1021300008018E40D2B2F1B2C4F10703D940104079
:1021400040EA01023946404600F034F80120BDE87B
:10215000F08100002DE9F04105461448016821F4A2
:1021600040310160016841F480310160104E002768
:10217000C6F8A4723C464FF00108E809C6F8A00270
:102180006806050E012003F0F7FEC6F8A4820120C0
:1021900003F0F2FEC6F8A472012003F0EDFE641C09
:1021A000E4B2082CE9D3BDE8F0810000000402404D
:1021B0000080404270B515460E460446FFF732FFD8
:1021C0002046FFF7C7FFFFF775FF3046FFF7C2FF56
:1021D000FFF770FF2846FFF7BDFFFFF76BFFFFF724
:1021E00049FF012070BD00002E4930EEC00A2E4884
:1021F000D1ED090A2E4A90ED001A70EE600A2B48C4
:1022000060EE810A90ED001A41EE000A91ED081A85
:1022100070EE810A10EE900AC1ED080A904203DDCB
:10222000DFED240AC1ED080A10EE900A224A90421E
:1022300003D9DFED220AC1ED080A81ED090A887889
:1022400048B3B0EE600ADFED1E0AB5EEC00AF1EE4B
:1022500010FA03DD30EE600A81ED080AB5EEC00A1F
:10226000F1EE10FA03D230EE200A81ED080A10EEEA
:10227000100AB0F1804F0ADAB0F1404F07D29FED5B
:10228000110A81ED080A087940F0010002E008799E
:1022900020F00100087191ED080ABDEEC00A10EEB1
:1022A000100A7047FC010020B4010020B801002092
:1022B0000040834600408346004083C6004083C6FA
:1022C0000000484200000000274930EEC00A274ABB
:1022D000C86A904203DDDFED260AC1ED0B0A254AEC
:1022E000C86A904203D9DFED240AC1ED0B0A81EDE3
:1022F0000C0A887888B391ED0B0ADFED200AB5EE61
:10230000C00AF1EE10FA03DD30EE600A81ED0B0A2F
:10231000B5EEC00AF1EE10FA03D230EE200A81EDDC
:102320000B0A10EE100AB0F1804F0ADAB0F1404FFC
:1023300007D29FED130A81ED0B0A087940F00200E5
:1023400002E0087920F0020008710879032804D11E
:10235000002088700122CA70087191ED0B0ABDEE51
:10236000C00A10EE100A7047FC01002000408346AE
:1023700000408346004083C6004083C600004842B8
:10238000000000001CB50121042000F0C9FF20203E
:10239000009000208DF8040003208DF80500012036
:1023A0008DF8070069460248FFF726FC1CBD0000B7
:1023B0000008024000EE100AB7EE001A70B5F8EE01
:1023C000400A3A483A4D002281EE200ADFED360AF3
:1023D000037A20EE200A4BB1C271C282028342838B
:1023E0008283D5F81432012B00D10272D5F8143251
:1023F000047A23434FF001040AD1C471438B5B1C60
:102400009BB243838B4203D94283038B5B1C0383C0
:10241000DFED280A068B80EE801AFCEEC10A10EE72
:10242000903A9BB2B34202D20472032070BDC379CA
:10243000B3B3D5F81432012B09D1838B5B1C9BB24B
:1024400083838B4203D98283C18A491CC182DFED19
:102450001A0A80EE801AFCEEC10A10EE901ADFED27
:10246000170A8AB2C18A8A420ED280EE801ABCEE66
:10247000C11A11EE102A92B28A4205D9D5F8141267
:1024800071B90472022070BD80EE801ABCEEC10AE0
:1024900010EE102A92B28A4203D20472012070BD5B
:1024A000FFE70020FBE7000000007A442000002046
:1024B0000000414200001644000048420000FA4378
:1024C00070B500216420FFF775FF1349134B144CBE
:1024D000144A012810D0022813D003280BD1124926
:1024E0000120087011490878401CC0B2087001280A
:1024F00001D90020087070BD0D4D287850B1002022
:102500002870186808609888888010682060908813
:10251000A08070BD0120F3E7880200208E02002019
:10252000940200209A0200205F0200205C0200203A
:10253000E90000201CB50121082000F0F1FE4FF455
:102540006040009001208DF8040000218DF80610F5
:1025500003218DF805100B4C8DF8070069462046C5
:10256000FFF74AFB4FF480412046FFF793FB4FF4FF
:1025700000512046FFF78EFB4FF400412046FFF745
:1025800089FB1CBD000C0240BC2801D3012210E0D5
:10259000622801D302220CE02A2801D3032208E09A
:1025A000142801D3042204E00A2801D3052200E004
:1025B00006221A21D020FFF7FDBD10B504464FF4C6
:1025C0007A70844201D9044602E0042C00D204242B
:1025D000B0FBF4F0401EC2B21921D020FFF7EAFD93
:1025E0006008BDE81040FFF7CFBF10B580226B2117
:1025F000D020FFF7DFFDC82003F0A2FC00226B21F2
:10260000D020FFF7D7FD012000F03AF8002000F0BD
:102610002EF83220FFF7D1FF00223821D020FFF71B
:10262000C9FD00226A21D020FFF7C4FD002223212A
:10263000D020FFF7BFFD80223721D020FFF7BAFD61
:102640007521D020FFF7CEFC682801D0012010BDF5
:1026500001226B21D020FFF7ADFD00226C21D0209C
:10266000FFF7A8FD3220FFF7A8FF002010BD08B536
:102670000223009004221C21D020FFF745FD08BD55
:1026800008B50223009004221B21D020FFF73CFD57
:1026900008BD000008B503F0A1FC0D4C40F2EE258A
:1026A00000900A21684605F0EFF92068A8420ADA8E
:1026B000401C2060606820612089A082D4F80A0054
:1026C000E061E089208400F005F800F047F8E8E7D1
:1026D0007802002070B53C21D020FFF783FC04462F
:1026E0003B21D020FFF77EFC04EB00201A4C3E215A
:1026F0002080D020FFF776FC05463D21D020FFF753
:1027000071FC05EB002060804021D020FFF76AFCBF
:1027100005463F21D020FFF765FC05EB002000B205
:10272000A4F10A01A080096840F2EE22914212DB76
:1027300004F118032188198062885A8098809B1FB1
:102740001D88491B21805988511A61809988401A37
:1027500000F58040A08070BD82020020D0B54421E9
:10276000D020FFF73FFC04464321D020FFF73AFC7E
:1027700004EB0020244C46212080D020FFF732FCBF
:1027800006464521D020FFF72DFC06EB0020608097
:102790004821D020FFF726FC06464721D020FFF72E
:1027A00021FC06EB002001B2221FA180106840F23C
:1027B000EE27164B164EB84204DA4FF001001860AF
:1027C00030701FE008D14FF0000737704FF4967655
:1027D00000F101001E6010600B4B208803F1120312
:1027E000188062885A809980A3F106031E88A0EBA6
:1027F000060020805888A2EB000060809888A1EB3A
:102800000000A0802846D0BD7C02002044000020AB
:10281000AC010020FEE700002DE9FC5F01210F2044
:1028200000F07EFD01248DF8044000258DF806504F
:102830004FF480768DF8055000968DF80740694674
:102840002448FFF7D9F98DF806508DF80440DFF8D9
:1028500088A04FF4E0478DF8055000978DF80740A9
:1028600069465046FFF7C8F98DF804408DF80650C8
:10287000DFF868B041F201088DF80550CDF800800E
:102880008DF8074069465846FFF7B6F98DF80440C1
:102890008DF806508DF805508DF80740104C4FF418
:1028A000A059CDF8009069462046FFF7A5F93146BA
:1028B0000848FFF7EDF939465046FFF7E9F9414678
:1028C0005846FFF7E5F949462046FFF7E1F9BDE82C
:1028D000FC9F00000000024000040240000802408B
:1028E000000C02402DE9F041884607468AB00121DC
:1028F000022000F02DFD0121042000F011FD394ED1
:10290000032206213046FFF7B3F9032207213046A0
:10291000FFF7AEF9032208213046FFF7A9F9032299
:1029200009213046FFF7A4F94FF47070059002209A
:102930008DF8180003208DF8190000248DF81A4036
:1029400001258DF81B5005A93046FFF755F9264E95
:10295000ADF81C800897ADF82450ADF81E4007A9CB
:10296000304601F0C3FC6020ADF80000ADF8025025
:10297000ADF80C406946304601F068FB69463046C8
:1029800001F0A0FB6946304601F0F0FB6946304695
:1029900001F03AFC0121304601F0BAFA0821304634
:1029A00001F08AFB0821304601F0D6FB08213046B1
:1029B00001F024FC0821304601F060FC0121304682
:1029C00001F08CFA084834300460001D0460001DDA
:1029D0000460001D04600121304601F08FFA0AB046
:1029E000BDE8F0810008024000040140704700008B
:1029F00030B50F23C27801780125FAB1144A126864
:102A000001F1E02102F4E062C2F5E062C2F30722C4
:102A1000C2F10404D3404278A24084781C4014439D
:102A2000220181F80024007800F01F018D40400948
:102A3000800000F1E020C0F8005130BD01F01F001F
:102A400085404809800000F1E020C0F8805130BD89
:102A50000CED00E00249084302490860704700009D
:102A60000000FA050CED00E010B40021084B0A4606
:102A7000002003EBC004401CC0B262548028F8D38D
:102A8000491CC9B20829F3D310BC00F0B7B8000044
:102A9000B002002010B57F2816D83F2914D807238C
:102AA000A3EBD10301F00701C1F107040121A1400B
:102AB000064CDBB204EBC000002AC25CC9B201D0F4
:102AC0000A4300E08A43C25410BD0000B002002057
:102AD0007CB50121082000F023FC01268DF804605C
:102AE0000024F0208DF8064000908DF805408DF808
:102AF000074069463F48FFF77FF80121080700F0CB
:102B00001BFC012000F006FC002000F081FC0020EE
:102B100000F000FC384DC5F89442642005F5257599
:102B200003F00EFA2E600021AE2000F029F90021FA
:102B3000D52000F025F90021502000F021F90021D6
:102B4000A82000F01DF900213F2000F019F9002114
:102B5000D32000F015F90021084600F011F90021FA
:102B6000402000F00DF900218D2000F009F900212E
:102B7000142000F005F90021202000F001F90021C7
:102B8000022000F0FDF80021A12000F0F9F800215A
:102B9000C02000F0F5F80021DA2000F0F1F8002163
:102BA000122000F0EDF80021812000F0E9F800216A
:102BB000EF2000F0E5F80021D92000F0E1F8002135
:102BC000F12000F0DDF80021DB2000F0D9F8002131
:102BD000302000F0D5F80021A42000F0D1F8002129
:102BE000A62000F0CDF80021AF2000F0C9F8FFF7D3
:102BF0003BFF7CBD000C02400080414270B5104E8E
:102C0000002505F1B000C0B2002100F0B9F80021A4
:102C1000084600F0B5F80021102000F0B1F80024BB
:102C200006EBC4000121405D00F0AAF8641CE4B288
:102C3000802CF5D36D1CEDB2082DE2D370BD0000E1
:102C4000B00200202DE9F04F203A98460D46834609
:102C5000894602F0FF0A00262EE0B8F10C0F08D0DA
:102C6000174901EB0A100027845D200607D5099A51
:102C700008E014490AEB4A0001EB8000F3E70998E9
:102C800090B1002229465846FFF704FF6D1C6006EC
:102C9000EDB2040EA5EB0901414507D10BF101008E
:102CA0004D4600F0FF0B05E00122EBE77F1CFFB271
:102CB000082FDAD3761CF6B24645CED3BDE8F08FA6
:102CC000008F00088C8A00082DE9FF4F81B0002793
:102CD000DDF838B01D46924680463C464FF001096B
:102CE0004FEA5B0627E0281B401EC1B20A2003F012
:102CF000DFF9BAFBF0F00A21B0FBF1F201FB1200A0
:102D000027B9691E8C4201DA48B101273030C2B2BE
:102D100006FB0480C0B25B46CDF8009006E006FBDF
:102D20000480C0B25B462022CDF800900299FFF7E4
:102D300089FF641CE4B2AC42D5D305B0BDE8F08F86
:102D4000F8B516460D460446012714E07A2C02D940
:102D500000241035EDB23A2D03D900242546FFF7A3
:102D600083FE009732780C2329462046FFF76AFF3E
:102D70000834E4B2761C30780028E7D1F8BD0000B2
:102D800030B500230E4A012411B1C2F8904201E08F
:102D9000C2F890320021C2F89C32050602D5C2F872
:102DA000984201E0C2F89832C2F89C424006491CA1
:102DB000000EC9B20829EED3C2F8904230BD00001F
:102DC000008041420020044A01461154401CC0B218
:102DD0000928FAD370470000B00600202DE9F84317
:102DE00001250746ADF80050204800264670ADF892
:102DF00000501F4C80464FF6FF792DE0BDF80000D3
:102E0000384202D0C4F8845201E0C4F88462102031
:102E100003F0B2F8C4F88C520A2003F0ADF8C4F8FD
:102E20008C620A2003F0A8F8C4F88C52102003F03A
:102E3000A3F8D4F8000230B198F80110BDF80020D2
:102E4000114388F80110102003F096F8BDF8001027
:102E500009EA4100ADF80000BDF80000FF28CDD917
:102E6000BDE8F843102003F087B80000B00600204A
:102E70000000424270B5FFF7A5FF00F00BF90B48C8
:102E80000B4AB0F803400A4808324480002001256C
:102E900012F8103000F101005B1E05FA03F1214227
:102EA000C0B202D01028F3D3002070BDB0060020BD
:102EB0004C00002010B5154C0020C4F888021020EA
:102EC00004F5227403F058F80120FFF787FF432030
:102ED000FFF784FF0020FFF781FF0120FFF77EFF4F
:102EE0000020FFF77BFF0020FFF778FF0020FFF7AF
:102EF00075FF0020FFF772FF0020FFF76FFF012032
:102F00002060BDE81040102003F036B800004242B7
:102F100010B5154C0020C4F88802102004F5227466
:102F200003F02AF80120FFF759FF4320FFF756FF6F
:102F30000020FFF753FF0020FFF750FF5A20FFF754
:102F40004DFF5A20FFF74AFF5A20FFF747FF5A204C
:102F5000FFF744FF5A20FFF741FF01202060BDE842
:102F60001040102003F008B8000042427CB5012157
:102F7000102000F0D5F9012400250D4E8DF80450E5
:102F800000948DF8074069463046FEF735FE0E2066
:102F900000908DF804408DF8065002208DF8050051
:102FA0008DF8074069463046FEF726FE7CBD0000DE
:102FB0000010024010B5FFF75DFF00EE100A274831
:102FC0002C4BB8EE400A012280ED000A2448C1795A
:102FD00000EE901A2349F8EE600AC1ED000A017A6A
:102FE00000EE901A2049F8EE600AC1ED000A41791E
:102FF00001EE101A1D49B8EE411A81ED001A8079D0
:1030000010EE101A01EE100A1948B1F1814FB8EE16
:10301000411A80ED001A184801D10178D9B15968D8
:10302000002917D010EE901A144B994212DA017849
:1030300000290FD1124940F2EE230968994209DBB9
:1030400010490270002008700F4908700F4908707D
:103050000F49087010BD5A60E4E70000F801002035
:10306000B0060020E8010020EC010020F001002063
:10307000F40100204C000020BC0100200000EC42C4
:1030800078020020BE010020BD010020BF01002009
:10309000C00100202DE9FC4100268DF800600125CB
:1030A000ADF80450224CC4F88862224F3878FFF7FC
:1030B00095FE7878FFF792FE02208DF800001E4FF3
:1030C0004FF6FF782CE0ADF804501DE0C4F88C52A8
:1030D0000A2002F051FFC4F88C620A2002F04CFF73
:1030E000C4F88C52D4F8000240B19DF80000BDF83D
:1030F0000410385C08439DF800107854BDF80410A3
:1031000008EA4100ADF80400BDF80400FF28DDD94D
:10311000102002F031FF9DF80000401C8DF80000E7
:103120009DF800000928CED3C4F88852BDE8FC8180
:10313000000042424C000020B006002010B500F014
:103140000DF800F00BF800F009F8FFF7B3FE00F0FF
:1031500027F8BDE81040FFF7DBBE000010B50F4CAC
:103160000020C4F88802102004F5227402F004FF45
:103170000120FFF733FE4220FFF730FE0020FFF76B
:103180002DFE0020FFF72AFE0020FFF727FE01207A
:103190002060BDE81040102002F0EEBE0000424268
:1031A00010B5144C0020C4F88802012004F52274E4
:1031B000FFF714FE4420FFF711FE0020FFF70EFE7C
:1031C0000120FFF70BFE0320FFF708FE0020FFF7AA
:1031D00005FE0020FFF702FE0020FFF7FFFD0020A4
:1031E000FFF7FCFD01202060BDE81040102002F038
:1031F000C3BE000000004242394810B49FED370AB8
:10320000D0ED000A37486FF0130370EE600AFDEE50
:10321000E00A10EE901AD0ED000A994230EE600AF2
:10322000BDEEC00A10EE100A02DD142900DA0021FA
:10323000984202DD142800DA00202B4A2C4B2B4C3C
:10324000126893ED000AF1EE040AA24202D130EEB8
:10325000200A04E0274CA24203D130EE600A83ED3D
:10326000000AB5EEC00AF1EE10FA03D29FED220A71
:1032700083ED000A00EE101A93ED001A9FED222A4A
:10328000F8EEC00A00EE100ADFED1E1A1B49B8EE78
:10329000C00A60EE810A1A4820EE020A60EEA10A16
:1032A00020EE210AF5EEC00AC1ED000AF1EE10FA97
:1032B00080ED000A07D29FED152AC1EE021A20EE1A
:1032C000610A80ED000A9FED121A80EE810A81EDFD
:1032D000000AD0ED000A10BCFEF75EBA0000004301
:1032E000EC010020F0010020F80100200000304136
:1032F000B00100200000104100000000C8010020C3
:10330000D00100200000003CDB0F493F0000FA43E1
:1033100000007A44014908627047000000000E4234
:10332000044A0029116801D0014300E08143116083
:103330007047000030380240044A0029116801D06B
:10334000014300E0814311607047000040380240B3
:10335000044A0029116801D0014300E08143116053
:103360007047000044380240044A0029116801D027
:10337000014300E08143116070470000243802409F
:1033800070B5204B1968204C11F00C0104D0661068
:10339000042903D0082903D004601BE0066019E06B
:1033A000184A121F1168C1F38055116801F03F01DE
:1033B00015B1B6FBF1F101E0B4FBF1F1146812684C
:1033C000C4F388146143C2F30142521C5200B1FBA2
:1033D000F2F1016019680F2202EA11110B4A545CE4
:1033E0000168E14041601C68072505EA9424145DEA
:1033F00021FA04F484601B6805EA5333D25CD1409F
:10340000C16070BD083802400024F400280100208B
:10341000054900220A700A70012802D0042801D14F
:103420000520087070470000703802400021022813
:1034300007D003280BD004280BD005280BD0002080
:1034400070474FF08042506A516200B27047044AA0
:1034500002E0044A00E0044A1068116000B27047BC
:103460002404004024080040240C0040F0B54FF430
:10347000FA66454B771032463946186804F026F84C
:10348000424D186032463946286804F01FF8404C17
:10349000286032463946206804F018F832463D4E1E
:1034A00020603946306804F011F830601B682A68E3
:1034B0002168A3F2DC535B426FF06304A2F2DC529A
:1034C000A1F2DC51A24202DD642A00DA0022A1420C
:1034D00002DD642900DA0021A34202DD642B00DA58
:1034E000002300EE101A2C48B8EEC00AD0ED000AF6
:1034F00030EE800ABDEEC00A10EE100A002800DA95
:10350000002000EE102A01EE900A01EE103AB8EE0B
:10351000C00AF8EEE11AB8EEC11A204A204920EE9E
:10352000212ADFED201A82EE210A9FED1F2A21EECB
:10353000022A82EE211A82ED000AB5EEC00AF1EEEF
:1035400010FA81ED001A05D280EEA12A61EE420A3E
:10355000C1ED000ADFED150A154B80EE201A82ED51
:10356000001A987938B19FED130A401E82ED000AC7
:1035700081ED000A9871D1ED000A92ED000ABDE8D4
:10358000F040FEF709B900008C00002090000020F8
:103590009400002098000020B0010020C801002005
:1035A000D00100200000FA43DB0F493F00007A44BD
:1035B000FC010020000000000E4A82EC020AC2E971
:1035C00002018900414301EE901A0B4882ED041A72
:1035D000F8EEE11AC0ED001ADFED081A084821EEF6
:1035E000211A80ED001A074880ED000A0648C0ED58
:1035F000000A7047185B0020D4010020DB0F49400F
:10360000D8010020DC010020E001002010B53C4C76
:103610004FF4CF700A2120600C20FEF705FC2168D2
:10362000384B90FBF1F0C0B218700A2802D90A207A
:10363000187010BDDFED342A9FED342A4FF4FA7470
:1036400048B9B4EE001A21461B20F0EE420AB0EE53
:10365000620AFFF7B1FF1878012809D1B4EE001A09
:1036600021463320F0EE420AB0EE620AFFF7A4FFD3
:103670001878DFED272A9FED273A022809D1B0EE0E
:10368000621A21461220F0EE420AB0EE430AFFF71A
:1036900093FF1878032809D1B0EE621A21462F2033
:1036A000F0EE420AB0EE430AFFF786FF18780428CE
:1036B00009D1B0EE621A21461220F0EE420AB0EEB5
:1036C000430AFFF779FF1878052809D1B0EE621A8E
:1036D00021462F20F0EE420AB0EE430AFFF76CFFBE
:1036E00018780628A5D1BDE810409FED0B1A4FF4BD
:1036F00016710120F0EE420A9FED080AFFF75CBF49
:10370000C4010020AD010020B072A83E00000000FE
:10371000F6285C3E21B0123F9A99993E9A99193F3A
:10372000F0B50E46054601218BB00804FFF710FEE8
:1037300001210846FFF7F4FD02208DF82400042043
:10374000089003208DF825001E4F00248DF8264098
:1037500008A93846FEF750FA032202213846FEF740
:1037600087FAADF814600695174E0125ADF81C5088
:10377000ADF8164005A9304600F0B8FD6020ADF860
:103780000000ADF802500294ADF80C40ADF81040C6
:103790006946304600F05AFC0821304600F08CFCA7
:1037A0000121304600F09AFB0121304600F0A6FBD3
:1037B00040F2DC5070630121304600F0A9FB0BB0F1
:1037C000F0BD000000000240004001400CB50022A6
:1037D000274900920192086840F4803008604FF455
:1037E000A043086800F4003001900098401C00904D
:1037F000019810B900989842F3D10868800334D535
:10380000012001901A484030026842F08052026064
:103810001848026842F440420260154808300268C5
:103820000260026842F400420260026842F4A05260
:103830000260031F104A1A600A6842F080720A6030
:103840000A689201FCD50D4940F205720A600168D0
:1038500021F003010160016841F00201016001688B
:10386000C1F381010229FAD10CBD01920CBD000007
:10387000003802400070004008544007003C0240FD
:103880002DE9F0470025174C012690460F460028E9
:1038900004DAC4F8B052C4F8B46203E0C4F8B06209
:1038A000C4F8B45202F000FCDFF83C9001464846F0
:1038B00000F0F0FC0D48002F04DDC4F8B852C0F849
:1038C000806203E0C4F8B862C0F88052384602F063
:1038D000EBFB0146484600F0DBFC0549C1F83480AB
:1038E000BDE8F087008040420004014000004142F2
:1038F000004001402C48B0EE001AD0ED001AF4EE62
:10390000C01AF1EE10FA09D271EE811AC0ED001A58
:10391000F4EEC01AF1EE10FA0ADC0BE008DD71EEED
:10392000C11AC0ED001AF4EEC01AF1EE10FA01D27D
:1039300080ED000AD0ED021AF4EEE01AF1EE10FA72
:1039400009D231EE811A80ED021AB4EEE01AF1EEDE
:1039500010FA0ADC0BE008DD31EEC11A80ED021A24
:10396000B4EEE01AF1EE10FA01D2C0ED020A9FEDBA
:10397000111AB5EEC00A0D4AF1EE10FA0C4B06D141
:103980000168914203DA994201D280ED001AF5EE06
:10399000C00AF1EE10FA06D18168914203DA994229
:1039A00001D280ED021A70479C5A0020CDCC4C3DCC
:1039B000CDCC4CBD000000004FF0E0210428086988
:1039C00003D020F004000861704740F00400FAE7DB
:1039D00010B504F0FFFD012803D0BDE8104004F04D
:1039E000EDBA10BD124810B5016841F470010160D4
:1039F0001048016841F0010101600E4A00210832BF
:103A0000116002680C4B1A400260031D0B4A1A60D9
:103A1000026822F48022026006480C300160FFF741
:103A2000D5FE03494FF000608039086010BD0000EA
:103A300088ED00E000380240FFFFF6FE1030002461
:103A400070B5048C24F001040484058B048C4FF6BB
:103A5000FF7606EA0313134325F0F3052B4324F006
:103A60000A020A4342F001010383018470BDF0B5EC
:103A7000048C24F010040484078B068C4FF6FF742A
:103A800004EA011527F4734704EA0331394304EAD1
:103A900002220A4326F0A001294341F010010283CB
:103AA0000184F0BD2DE9F0479F480024C169B1F5BC
:103AB000C86F12DD9D490A787AB99D4A40F2EE231B
:103AC00012689A4209DB01220A709A490C709A49DD
:103AD0000C709A490C709A490C7080460078994D88
:103AE000000642F20F764FF4FA7735D402212846C9
:103AF00000F03AFA80B30221284600F0FCF998F869
:103B000000004006284645D500F026FA80B2A8F805
:103B10000A00B8F808204146904201D28E6300E0C6
:103B20008C63801A8A6B104488618A6A801A00D577
:103B30004042B84207DD0879401CC0B20871052830
:103B400001D88A6100E00C718869886288F80040B9
:103B50000021284600F0AAFA98F80100000643D494
:103B60000421284600F000FAA0B30421284600F002
:103B7000C2F998F801004006284653D500F0EEF946
:103B800080B2A8F80E00B8F80C20414690420ED240
:103B9000CE630DE000F0E0F90146A8F8081098F8AF
:103BA000001041F0400188F800100221D1E7CC63F9
:103BB000801ACA6B1044C861CA6A801A00D5404294
:103BC000B84208DD4879401CC0B24871052802D8C7
:103BD000CA6101E008E04C71C869C86288F8014018
:103BE0000021284600F0AEFA98F80200000643D4FF
:103BF0000821284600F0B8F9A0B30821284600F0B3
:103C00007AF998F802004006284654D500F0A8F941
:103C100080B2A8F81200B8F81020414690420ED2A7
:103C20000E640DE000F09AF90146A8F80C1098F81F
:103C3000011041F0400188F801100221D1E70C6425
:103C4000801A0A6C104408620A6B801A00D5404240
:103C5000B84208DD8879401CC0B28871052802D8B6
:103C60000A6201E008E08C71086A086388F8024083
:103C70000021284600F0B8FA98F80300C146000673
:103C80004FD41021284600F06FF9002849D01021A8
:103C9000A846284600F02FF999F803004D46400643
:103CA00033D5404600F05EF980B2E882A98A8842A6
:103CB0000ED26E640DE000F053F90146A8F8101022
:103CC00098F8021041F0400188F802100221D0E774
:103CD0006C64401A696C08446862696B401A00D5CC
:103CE0004042B84207DDE879401CC0B2E8710528BF
:103CF00001D8696200E0EC71686A6863EC700021C9
:103D00004046BDE8F04700F0AFBA4446404600F0F8
:103D100029F9A882E878022140F04000E8702046A6
:103D2000EFE7BDE8F087000074000020BE0100202E
:103D300078020020BD010020BC010020BF0100204E
:103D4000C001002000000140F0B50D4606460121EB
:103D500089B00846FFF7FCFA01211020FFF7E0FACE
:103D60004FF4D440022203908DF8102003208DF8E8
:103D700011000024404F8DF812408DF8132003A944
:103D80003846FDF739FF012209213846FDF770FF5B
:103D900001220B213846FDF76BFF01220D21384629
:103DA000FDF766FF01220E213846FDF761FF0696FA
:103DB000324EADF81450ADF81C40ADF8164005A9D0
:103DC000304600F093FA01250F20ADF80040ADF821
:103DD0000450ADF80800ADF80240ADF80640694661
:103DE000304600F0CDF80420ADF80000ADF80450E6
:103DF000ADF80240ADF80640ADF8084069463046DF
:103E000000F0BEF80820ADF80000ADF80450ADF8A1
:103E10000240ADF80640ADF808406946304600F073
:103E2000AFF80C20ADF80000ADF80450ADF802403A
:103E3000ADF80640ADF808406946304600F0A0F8FD
:103E40001B208DF820008DF821408DF822408DF840
:103E5000235008A8FEF7CCFD01221E21304600F0B9
:103E6000EDF80121304600F053F80121304600F012
:103E700045F809B0F0BD000000100240000001400C
:103E80000248018A21F001010182704700000140CF
:103E90004FF08040018A018A21F0010101827047C0
:103EA00003480188018821F001010180704700006A
:103EB0001004004003480188018821F001010180BD
:103EC000704700001008004003480188018821F075
:103ED0000101018070470000100C0040002901889A
:103EE00002D041F0800101E021F0800101807047A3
:103EF000C94301827047C943018270470029018884
:103F000002D041F0010101E021F001010180704780
:103F1000002930F8441F02D041F4004101E0C1F310
:103F20000E010180704770B50589048B068C25F061
:103F300007050D434FF6FC410C4040F201110C43C4
:103F40004FF6FF7101EA031126F0220611433143B7
:103F500005810483018470BD406B7047806B70479E
:103F6000C06B7047006C704702460020138A92892C
:103F70000B4202EA010202D0002A00D00120704761
:103F80002DE9F0410C460E884988A2882389054610
:103F900016B3042E28D0082E2E8C4FF6FF702BD08F
:103FA00026F480562E84AF8B2E8C00EA022200EA83
:103FB000013127F473473A4300EA0330104326F4F3
:103FC00020420A4342F48051A8832984E18828468C
:103FD000BDE8F04100F07EB9FFF732FDE1882846E8
:103FE000BDE8F04100F05AB9FFF741FDE1882846ED
:103FF000BDE8F04100F05AB926F480762E84AF8BEC
:104000002E8C00EA012100EA0310104327F0F30789
:10401000384326F420620A4342F48071A88329843D
:10402000E1882846BDE8F04100F04CB9002101804C
:10403000418001228280C18001817047002A8289EB
:1040400001D00A4300E08A438281704730B5028C78
:1040500022F001020284028C8388048B22F0020287
:1040600024F073050C882C438D8915434A882A4314
:104070000C4DA84202D00C4DA8420DD122F00805EB
:10408000CA8923F440732A4322F004058A882A430C
:104090000D8A1D434B8A2B438380048389684163C7
:1040A000028430BD0000014000040140028C22F077
:1040B00002020A4302847047028B22F008020A437C
:1040C0000283704770B5028C22F010020284028CC9
:1040D0008388048B0D8824F4E6464FF6FF7404EAC7
:1040E000052535438E8922F0200204EA0616164380
:1040F0004A8804EA02123243104EB04202D0104EF7
:10410000B04215D122F08006CA8923F4406304EA44
:104110000212324322F040068A8804EA0212324335
:104120000E8A04EA86061E434B8A04EA830333435D
:104130008380058389688163028470BD000001402B
:1041400000040140028C4FF6FF7322F0200203EAC4
:104150000111114301847047028B4FF6FF7322F463
:10416000006203EA012111430183704770B5028C9C
:1041700022F480720284028C8388848B0D8824F060
:10418000730425438E894FF6FF7422F4007204EA0B
:10419000062616434A8804EA02223243104EB042F1
:1041A00002D0104EB04215D122F40066CA8923F421
:1041B000405304EA0222324322F480668A8804EAE9
:1041C000022232430E8A04EA06161E434B8A04EA90
:1041D00003133343838085838968C163028470BD80
:1041E0000000014000040140028C4FF6FF7322F4EE
:1041F000007203EA0121114301847047828B22F08F
:1042000008020A438283704770B5028C22F4805200
:104210000284058C8288838B0C8823F4E6464FF653
:10422000FF7303EA0424344325F400568D8903EA1E
:10423000053535434E8803EA06362E43084DA8421D
:1042400002D0084DA84205D122F480450A8A03EA2B
:1042500082122A438280848389680164068470BD47
:104260000000014000040140028C4FF6FF7322F46D
:10427000005203EA0131114301847047828B4FF6EB
:10428000FF7322F4006203EA012111438183704726
:10429000C16370470164704741627047028B22F02E
:1042A0000C020283028B0A4302837047028B22F4C2
:1042B00040620283028B4FF6FF7303EA01210A4337
:1042C00002837047828B22F00C028283828B0A4326
:1042D00082837047828B22F440628283828B4FF606
:1042E000FF7303EA01210A438283704730B50288D5
:1042F000164C174DA0420DD0A8420BD0B0F1804F04
:1043000008D0144B984205D0134B984202D0134B5F
:10431000984203D122F070034A881A43104B984206
:1043200006D0104B984203D022F440730A891A43F6
:1043300002804A68C2620A880285A04201D0A8426F
:1043400001D1897A01860121818230BD00000140BE
:10435000000401400004004000080040000C004040
:1043600000100040001400404FF0FF314160002178
:104370000180018141808172704700000A2809DBB9
:104380001448D0F8100228B113480078012801D051
:1043900000207047114A012000211160121F116096
:1043A000121F1160121F11600D4AC2F8B412C2F838
:1043B000B0120C4BC3F88012C2F8B8120A4AC2F805
:1043C000A812C2F8B012C3F8B012084AC2F8A0127C
:1043D0007047000000004242AC0100204004014050
:1043E00000804042000041420080414200004042C3
:1043F0002DE9F04140F225512DED048B8A4800F063
:10440000B5FA00286FD08848001D0488E0B2FCF798
:10441000F1FB002867D1E0B200F0B2FB834840F224
:10442000EE21006888425EDB01200025804E412C91
:104430000ED1317941290BD17E490A7842B97E4AA1
:1044400015707E4A157008707D490D707D490D709C
:10445000E2B27D497D4FDFF8F8C17E4B32714B2CC3
:1044600008D0492C08D04A2C06D01B782BB1012B40
:104470000BD01EE018700CE01D70A4F14103072B57
:1044800028D9082C14DC0A7013E0432C09D0472CDF
:104490000BD03D708CF80050412C1BD0452C19D00E
:1044A00006E03D708CF8000002E038708CF8005097
:1044B0000D709FED690A694B9FED699A694F582C01
:1044C0000CD0592C10D07B2C15D07D2C15D0622C03
:1044D00016D01AE0A4F140030B70EAE7D7ED000A0A
:1044E00030EE800A04E09AE0D7ED000A30EEC00A10
:1044F00087ED000A09E070700FE00221717011E091
:10450000594C217839B1002121707178012904D0EA
:10451000022907D07AE00121F6E7B0781A54401C4E
:10452000B07073E0D978502906D05878232864D029
:10453000B078F07098462AE04C4908705DE0B17898
:10454000081AFCF745F841EC110B9FED490B00F000
:1045500073FBF478B0EE408A08EB0400F0EE608A5A
:1045600010F8010C3038FCF733F853EC182BFBF73C
:104570004EFF41EC180BF068FCF748F853EC182B91
:10458000FBF79EFEFCF755F8641EF060F470F078BF
:104590000428D4D298F80100303807282DD2DFE85B
:1045A00000F004090D111B1F250096ED030A87ED8D
:1045B000000A22E096ED030A2F481CE096ED030A5C
:1045C0002E4818E096ED030ADFED2D0A2D4880EE07
:1045D000201A80ED001A10E096ED030A2A480AE03E
:1045E00096ED030A2948BDEEC00A04E096ED030AE1
:1045F0002748BDEEC00A80ED000A7570B570F570F1
:1046000086ED039A32211548FBF74FFE97ED000A1D
:10461000B5EEC00AF1EE10FA01D287ED009A002043
:10462000BDEC048BBDE8F081004C00407802002016
:10463000BC000020BD010020BC010020BE01002004
:10464000BF010020C0010020C1010020E4010020C2
:10465000E5010020E60100200000C842BC06002061
:1046600000000000B0010020E9000020E701002068
:104670000000000000002440B4010020B801002028
:1046800000007A44500200204C0200200C0200205E
:104690001002002070B5294C40F22551204600F050
:1046A00065F9E8B3204600F0EFF9C1B2244840F2C2
:1046B000EE22006890423FDB234A224C002510780E
:1046C0007B29215400D058B3401CC0B210700B2875
:1046D00032D11570A07A7D282ED100210920FDF756
:1046E0002BF8617A884227D118481C490570184870
:1046F00005701848057018480570012008701848A2
:1047000005702179E07800F011FA164880ED000A72
:10471000A179607900F00AFA134880ED000A00E000
:104720000AE0217AE07900F001FA217AE07900F0DC
:10473000FDF90E4880ED000A002070BD0010014018
:104740001402002020070020BC000020BC01002033
:10475000BE010020BD010020BF010020C0010020DB
:1047600054020020C8010020CC010020D00100200C
:1047700000B50C4B0022985C02F0B4FF521CD2B280
:10478000182AF8D308480078012809D1054B0022DF
:104790005233985C02F0A6FF521CD2B2082AF8D31A
:1047A00000BD0000EE060020C201002070B5454C9F
:1047B00040F22551204600F0D9F800287FD020464D
:1047C00000F062F9C1B2404840F2EE220068904227
:1047D00075DB3F4A3D4C002550797B29215401D09F
:1047E00000286CD0401CC0B250710B2867D15571A5
:1047F000A07A7D2863D100210920FCF79DFF617A12
:1048000088425CD13348344A0570607830B1012861
:1048100023D0022821D003283CD050E02F48157027
:1048200005702F4805702F4805702F4805702F48D8
:1048300005702179E07800F079F92D4880ED000AC3
:10484000A179607900F072F92A4880ED000A217A96
:10485000E07900F06BF928482FE001211170012860
:1048600004D12648007808B9254801702179E078FC
:1048700000F05CF9234880ED000AA179607900F02E
:1048800055F9214880ED000A217AE07900F04EF9CF
:104890001E4812E02179E07800F048F91C4880EDCC
:1048A000000AA179607900F041F91A4880ED000A08
:1048B000217AE07900F03AF9174880ED000A0020EB
:1048C00070BD0000004800401402002020070020B6
:1048D000BC00002054020020E9000020BC010020A0
:1048E000BE010020BD010020BF010020C00100204A
:1048F000C8010020CC010020D0010020FD000020D4
:10490000E80000200C01002010010020140100200C
:10491000F0000020F4000020F800002000B50C4B4F
:104920000022985C02F0E6FE521CD2B2182AF8D39C
:1049300008480078012809D1054B00225233985CC1
:1049400002F0D8FE521CD2B2082AF8D300BD0000F3
:10495000EE060020C20100200029818902D041F426
:10496000005101E021F400518181704770B501F0E0
:104970001F0501260024C1F3421306FA05F2012B9C
:104980000FD0022B0FD0838A4FEA112100881342E7
:1049900006FA01F600EA060001D000B10124204623
:1049A00070BD8389F0E7038AEEE710B5C1F34213C7
:1049B00001F01F040121A140012B07D0022B07D0D9
:1049C0001430002A026805D00A4304E00C30F8E7EE
:1049D0001030F6E78A43026010BD00007FB5044640
:1049E000008A0D46C98820F4405001432182A089E5
:1049F00041F20C618843A9882A8911436A890243DC
:104A00001143A181A08A20F44071A8890843A082A3
:104A10006846FEF7B5FC1A48844202D01948844221
:104A200001D1039800E00298A189090400EBC001BC
:104A300001EB0010296801D5490000E08900B0FBB6
:104A4000F1F06422B0FBF2F109010B096FF01805D7
:104A50006B4300EB8300A3891D044FF0320306D59E
:104A600003EBC000B0FBF2F000F0070005E003EB41
:104A70000010B0FBF2F000F00F00084320817FBD72
:104A800000100140001401408088C0F30800704706
:104A9000FEE7000070B52149214D2DED028B9FED01
:104AA0001D8B887858B100208870D1ED020A05EB83
:104AB0008001401CC0B2C1ED000A6428F7D3012078
:104AC00005EB8001401CD1ED000AC0B241ED010AA6
:104AD0006428F5D385ED630A002455F82400FBF71C
:104AE00095FD53EC182BFBF7EBFB641C41EC180B0A
:104AF000E4B2642CF1D351EC180B9FED0A0B53EC8C
:104B0000102BFBF7F6FCFBF794FDBDEC028B00EEDF
:104B1000100A70BD00000000000000005C020020D0
:104B2000305B0020000000000000594070B501EB30
:104B3000002004B24FF47A7594FBF5F005FB1040A9
:104B40002DED028BFBF744FD9FED0B1B53EC112B5E
:104B5000FBF75DFC41EC180B94FBF5F0FBF738FD1F
:104B600053EC182BFBF7ACFBFBF763FDBDEC028BA2
:104B700000EE100A70BD0000FCA9F1D24D62503F5A
:104B8000164A10B5A2F110030024997A72285054E5
:104B900001D0002920D0491CC8B2987205281BD129
:104BA0009C721078722817D15078652814D19078AB
:104BB000732811D1D07865280ED1107974280BD1C3
:104BC000BFF34F8F06490868064A00F4E0601043BF
:104BD0000860BFF34F8FFEE710BD0000CC0000203F
:104BE0000CED00E00400FA050FB4054B10B503A965
:104BF000044A029800F022FF10BC5DF814FB00008C
:104C0000C55F00082401002003B40198410000980A
:104C100050EAC12018BF04204A0D18BF40F001001F
:104C200040F2FF72B2EB515F08BF40F00200012872
:104C300008BF052002B070472DE9F04D2DED040BA3
:104C40002DED0C8B96B0DDE92350259CDDF888A076
:104C500025F0004624F00048BAF1000F14BF0121EE
:104C6000002101EB4502FE4953184A1093422AD312
:104C7000002814BF0123002303EB44030B44F9492C
:104C80008B4220D358EA00019FEDF78B6FD0DFF8FD
:104C9000E0B35D4503D1BAF1000F05D187E0BAF169
:104CA000000F08BF002100D0012101EB450111F5E3
:104CB000001F08D8002814BF0121002101EB440186
:104CC00011F5001F0BD99DED241B9DED220B16B095
:104CD000BDEC0C8B04B0BDE8F04D00F05DBE0027CC
:104CE000002DBCBFE349884521DAE3498845A8BFC8
:104CF00002271CDAC3451ADCE04901EB28511429CC
:104D000008DDC1F1340220FA02F101FA02F2824216
:104D10000DD108E058B9C1F1140228FA02F101FAE4
:104D200002F2424503D101F00101C1F1020756EA46
:104D30000A011DD1002C1BDA002D18BF022F01D053
:104D4000012F0AD0022000F073FE16B0BDEC0C8BD0
:104D500004B0BDE8F04D00F007BE022000F068FE90
:104D600000F002FE51EC100B81F0004183E01EE0E8
:104D70009FEDC39B9FEDC4AB002872D1BD48804519
:104D80002DD105F1804010F5801008BFBAF1000F59
:104D90000DD0B34515DC002CA1BF9DED240B16B042
:104DA000BDEC0C8B04B0A8BFBDE8F08D12E0B0EEF6
:104DB000480AF0EE680A16B0BDEC0C8B04B0BDE8F2
:104DC000F08D002C06DA9DED240B51EC100B81F0D8
:104DD000004150E0AE48784490ED000BEBE7D84539
:104DE0004FD1002C4ADA2EB186423BD1BAF1000FE6
:104DF00044D126E0BAF1000F13D0022000F018FED3
:104E000000F0E6FD8DED020B9DED220B8DED000B0C
:104E100010EE900A039961F31E0003909DED020BC2
:104E2000C9E78DED029B9DED220B19EE901A10EE55
:104E3000900A8DED000B61F31E0003909DED020BB7
:104E4000B9E78DED02AB9DED220B1AEE901A10EE34
:104E5000900A8DED000B61F31E0003909DED020B97
:104E6000A9E729E00ADA9DED220B51EC180B53EC6F
:104E7000102BFBF73EFB41EC100B9CE79DED220B4A
:104E800099E7864218DAB4F1804F0DD0A4F10050B2
:104E9000B0F1FF5010D1002D0EDB9DED220B51EC37
:104EA000100B02F0F9F9E6E79DED220B53EC102B05
:104EB00051EC100B00F0AEBC9DED220B51EC100B31
:104EC00001F074F8BAF1000FCDE90C0134D19FED77
:104ED000720BDEB1A6F1E040B0F17F602CD1002D65
:104EE00001DD002C0DDA002D01DD002C1FDB002D73
:104EF00016DA002C14DB012F08BF9FED690B3FF47D
:104F00005AAFB0EE490AF0EE690A54E7022F18BF13
:104F1000002D0CD0012F0AD1002DFFF64CAF06E07A
:104F2000002DB8BF002C07DA012F3FF444AFB0EEDC
:104F30004A0AF0EE6A0A3EE7012000EBE57A5AEAF7
:104F400007000CD05848002580457CDD574958485B
:104F5000884514DDB0420DDB002C19DB2BE001206D
:104F600000F066FD16B0BDEC0C8B04B0BDE8F04D52
:104F700000F01EBDB34502DC002C09DC1BE08642BC
:104F800002DA002C17DA03E05E4527DD002C12DD83
:104F9000022000F04DFD00F01BFD10EE901A19EEFE
:104FA000900A8DED020B8DED009B61F31E000390C6
:104FB0009DED020BFFE6022000F03AFD00F018FD27
:104FC00010EE901A18EE900A8DED020B8DED008B0D
:104FD00061F31E0003909DED020BECE69DED220BAC
:104FE00053EC182B51EC100BFBF70BFA9FED320B27
:104FF000CDE90A0153EC102B9DED0A0B51EC100B7F
:10500000FBF705FA9FED2E1B53EC112BFBF7FCF978
:105010009DED0A1B53EC112BFBF7F9F99FED2A1BB1
:1050200053EC112BFBF7F0F99DED0A0B41EC190B3A
:1050300053EC102B51EC100BFBF7E9F953EC192B47
:10504000FBF7E5F900E07EE09FED210B41EC1A0B48
:1050500053EC102B9DED0A0B51EC100B3CE00000C3
:10506000FFFF1F00FFFF0F00000000000000F03FE7
:105070000000F03F0000F07F0000404301FCFFFF14
:10508000000000000000F07F0000000000000000B1
:10509000DE51000000000000000000000000008061
:1050A000000000000000F0FF0000E0410000F043BD
:1050B000FFFFEF3F00000000000000000000D03FB5
:1050C000555555555555D53F000000000000E03FAF
:1050D000000000604715F73FFBF799F941EC190B09
:1050E0009FEDFD0B51EC1A0B53EC102BFBF78FF9D6
:1050F00041EC1A0B9FEDFA0B53EC102B9DED0A0BB4
:1051000051EC100BFBF783F953EC1A2BFBF779F9F1
:1051100041EC1A0B51EC190B53EC1A2BFBF7D0F89E
:105120000690CDE906519DED060B53EC192B51EC81
:10513000100BFBF766F953EC1A2BFBF765F941EC02
:10514000100B00F09FB90020B6F5801F0EDA9FED1E
:10515000E60B53EC102B9DED0C0B51EC100BFBF7F9
:1051600056F9CDE90C016FF034000E4600EB2650E5
:10517000A0F2FF38C6F31300DD4940F07F6646F029
:1051800040568842D8BF002409DDDA498142C8BFB1
:10519000012404DC0024A6F5801608F10108D64895
:1051A000784400EBC4000D9690ED00BB9DED0C0B18
:1051B00053EC1B2B51EC100BFBF723F99DED0C0B63
:1051C00041EC1A0B53EC1B2B51EC100BFBF778F84E
:1051D00041EC100B51EC180B53EC102BFBF789F939
:1051E00041EC1C0B51EC1A0B53EC1C2BFBF70FF989
:1051F00041EC190BC1488DED109B7844109590ED52
:10520000000B4FF0005040EA660000EB84408DED4B
:105210000A0B00F500200B909DED0A0B53EC1B2BA5
:1052200051EC100BFBF7EDF89DED0C1B53EC112B23
:10523000FBF7EAF841EC100B53EC102B9DED100B33
:1052400051EC100BFBF7E3F89DED0A0B41EC1B0B47
:1052500053EC102B9DED100B51EC100BFBF7D7F816
:1052600053EC1A2BFBF7D0F853EC1B2BFBF7C9F8C8
:1052700053EC1C2BFBF7CBF841EC1B0B53EC192B1D
:1052800051EC190BFBF7C3F841EC1A0B9C480621B3
:10529000B0EE4A0AF0EE6A0A784400F0E9FAB0EE9D
:1052A00040CAF0EE60CA53EC1A2B51EC1A0BFBF714
:1052B000AEF853EC1C2BFBF7AAF89DED100B41EC5C
:1052C0001A0B53EC192B51EC100BFAF7F9FF53ECB6
:1052D0001B2BFBF79CF853EC1A2BFAF7F1FF9DED13
:1052E000100B41EC1A0B53EC102B51EC100BFBF78D
:1052F0008EF841EC1C0B9FED84DB53EC1D2BFAF771
:10530000DFFF53EC1A2BFAF7DBFF0A90CDE90A51C5
:105310009DED0A0B53EC1D2B51EC100BFBF771F8B4
:1053200053EC1C2BFBF76DF853EC1A2BFBF76CF8C6
:105330009DED0A0B41EC1C0B53EC102B9DED100B5B
:1053400051EC100BFBF763F841EC1A0B53EC192BE3
:1053500051EC1C0BFBF75BF89DED0A0B41EC190BB4
:1053600053EC102B51EC1B0BFBF751F853EC192BA2
:10537000FAF7A6FF41EC190B51EC1A0B53EC192B61
:10538000FAF79EFF1090CDE910519DED100B53ECF4
:105390001A2B51EC100BFBF734F853EC192BFBF7DD
:1053A00033F841EC190B9FED5A0B53EC102B9DED8C
:1053B000100B51EC100BFBF72AF841EC1A0B9FED88
:1053C000560B51EC190B53EC102BFBF720F841EC6A
:1053D000190B9FED530B53EC102B9DED100B51EC63
:1053E000100BFBF714F853EC192BFAF769FF41EC9B
:1053F000100B4D48784400EBC40090ED001B51ECBD
:10540000100B53EC112BFAF75BFF41EC190B4046E4
:10541000FBF7DEF8CDE90A0153EC192B51EC1A0B1E
:10542000FAF74EFF41EC100B4048784400EBC40003
:1054300090ED00BB51EC100B53EC1B2BFAF740FF27
:105440009DED0A1B53EC112BFAF73AFF0690CDE9BC
:1054500006519DED0A0B53EC102B9DED060B51EC04
:10546000100BFAF7CEFF53EC1B2BFAF7CAFF53ECE5
:105470001A2BFAF7C6FF53EC192BFAF7C5FF41ECCC
:10548000100B00BF781EB0EE48AAF0EE68AA5AEAE8
:10549000000008BF9FED268B9DED241B53EC102BC5
:1054A0008DED001B00959DED240B51EC100BFAF7D0
:1054B000AEFF9DED000B41EC190B53EC102B9DED55
:1054C000240B51EC100BFAF79CFF9DED061B53ECDF
:1054D000112BFAF79CFF2FE0FE822B654715F73F53
:1054E00044DF5DF80BAE543E000000000000404376
:1054F0008E9803007AB60B008C4D0000BA4D000068
:10550000C44C000000000000000000000000084043
:10551000000000E009C7EE3FFD033ADC09C7EE3F9B
:10552000F5015B14E02F3EBE584B0000124B00000B
:10553000000000000000F0BF53EC192BFAF7C0FE8A
:105540009DED060B41EC190B53EC102B9DED000B60
:1055500051EC100BFAF75BFFCDE910019DED100B3C
:1055600051EC190B53EC102BFAF7AAFECDE902010E
:105570000C46AB498C422FDB611A084318D19DEDD4
:10558000100B53EC102B9DED020B51EC100BFAF7A6
:1055900038FF41EC1B0B9FEDA40B51EC190B53ECA6
:1055A000102BFAF78DFE53EC1B2BFBF741F92DD294
:1055B000022000F03DFA00F00BFA10EE901A18EEFF
:1055C000900A8DED020B8DED008B61F31E000390B0
:1055D0009DED020BFFF7EFBB954A24F0004191428D
:1055E00014D39449214408437FF4E5AC9DED100B9E
:1055F00053EC102B9DED020B51EC100BFAF701FF51
:1056000053EC192BFBF714F97FF6D5AC24F00040CE
:1056100089498A4A002601EB205182422BDA481C34
:105620004FF4801121FA00F02044854AC0F30A515A
:105630007A44A1F2FF3192ED000B824A8DED0A0B04
:10564000CA4020EA0202C0F3130040F48010C1F106
:10565000140120FA01F60B92002CB8BF76429DEDA2
:105660000A0B53EC102B9DED100B51EC100BFAF7BD
:10567000C8FECDE910019DED100B51EC190B53EC58
:10568000102BFAF71DFE9FED700B0A90CDE90A5121
:1056900053EC102B9DED0A0B51EC100BFAF7B7FEF3
:1056A00041EC1B0B9FED6A0B53EC102B9DED0A0B8D
:1056B00051EC100BFAF7ABFE9DED100B41EC1C0BFF
:1056C00053EC102B9DED0A0B51EC100BFAF799FEE1
:1056D00053EC192BFAF798FE9FED5F1B53EC112B3F
:1056E000FAF795FE53EC1C2BFAF7EAFD41EC190B87
:1056F00051EC1B0B53EC192BFAF7E2FDCDE902013B
:105700009DED020B53EC1B2B51EC100BFAF779FEBD
:1057100053EC192BFAF778FE9DED020B41EC190BB7
:1057200053EC102B51EC100BFAF771FECDE90A0186
:105730004B489DED0A0B0521784400F099F89DED4A
:105740000A1B51EC100B53EC112BFAF760FE9DED88
:10575000021B53EC112BFAF757FECDE906019DED24
:10576000020B53EC192B51EC100BFAF750FE53ECD3
:10577000192BFAF7A5FD9FED3C0B41EC190B53ECEF
:10578000102B9DED060B51EC100BFAF73AFE9DED38
:10579000060B41EC1B0B53EC102B9DED020B51EC57
:1057A000100BFAF734FE53EC1B2BFAF7A2FE53EC66
:1057B000192BFAF726FE9DED021B53EC112BFAF77D
:1057C00020FE53EC1A2BFAF71FFECDE9020101EB84
:1057D000065001150029C8BF039015DC9DED020B92
:1057E000324651EC100BFBF70BF8FFF70DFA0428CB
:1057F00008BF00F0FDF832469DED020B51EC100B96
:10580000FAF7FEFFCDE902019DED020B51EC180BFA
:1058100053EC102BFAF7FBFDFFF72DBB0000000047
:105820000000904000000000FE822B654715973C69
:1058300000CC904000346F3F01FCFFFF0000E03FD0
:1058400084490000FFFF0F0000000000432EE63FE8
:10585000396CA80C615C20BEEF39FAFE422EE63F9F
:10586000544800000000000000000000000000405C
:1058700070B504462DED028B4D1E00EBC500B0EE59
:10588000408AF0EE608A90ED000B35F0060017D0EC
:1058900053EC182B51EC100BFAF7B9FD41EC100B3F
:1058A0006D1E04EBC50090ED001B51EC100B53EC8A
:1058B000112BFAF705FD41EC100B35F00600E7D18E
:1058C000022D36D0042D1CD0062D1CBFBDEC028B42
:1058D00070BD53EC182B51EC100BFAF798FD94EDBA
:1058E0000A1B53EC112BFAF7EBFC53EC182BFAF7CD
:1058F0008EFD94ED081B53EC112BFAF7E1FC41EC03
:10590000100B53EC182B51EC100BFAF780FD94EDB3
:10591000061B53EC112BFAF7D3FC53EC182BFAF7B8
:1059200076FD94ED040B53EC102BFAF7C9FC41EC17
:10593000100B53EC182B51EC100BFAF768FD94ED9B
:10594000021B53EC112BFAF7BBFC53EC182BFAF7A4
:105950005EFD94ED001B53EC112BFAF7B1FCBDEC8E
:10596000028B41EC100B70BD9FED070B10B553EC93
:10597000102B9FED070B51EC100BFAF7BAFD41EC21
:10598000100B10BD0000000000000000000000002F
:10599000000000000000F03F10B553EC112B51EC5B
:1059A000100BFAF78DFC41EC100B10BD000000004D
:1059B0009FED050B10B553EC102B51EC100BFAF7C3
:1059C00098FD41EC100B10BD00000000000000002D
:1059D0009FED050B10B553EC102B51EC100BFAF7A3
:1059E00016FD41EC100B10BD00000000000000701F
:1059F0009FED050B10B553EC102B51EC100BFAF783
:105A000006FD41EC100B10BD00000000000000106E
:105A100002E008C8121F08C1002AFAD17047704777
:105A2000002001E001C1121F002AFBD170470000D5
:105A30000149086070470000A00200202DE9FF4FD7
:105A40008BB09A460F460546002606E025280BD067
:105A500052460D9990476D1C761C28780028F5D188
:105A60000FB03046BDE8F08F0024A0460122604907
:105A700000E0044315F8013F203B02FA03F008421E
:105A8000F7D128782E2817D115F8010F44F0040417
:105A90002A280ED06FF02F022878A0F130010929B2
:105AA0000AD808EB880102EB410100EB01086D1CEC
:105AB000F2E757F8048B6D1C287869283ED006DC85
:105AC0000028CDD063280BD0642804D136E0732899
:105AD00010D075284BD052460D999047761C85E022
